{
  "_format": "hh-sol-artifact-1",
  "contractName": "WavePortal",
  "sourceName": "contracts/WavePortal.sol",
  "abi": [
    {
      "inputs": [],
      "stateMutability": "payable",
      "type": "constructor"
    },
    {
      "anonymous": false,
      "inputs": [
        {
          "indexed": true,
          "internalType": "address",
          "name": "from",
          "type": "address"
        },
        {
          "indexed": false,
          "internalType": "uint256",
          "name": "timestamp",
          "type": "uint256"
        }
      ],
      "name": "NewWave",
      "type": "event"
    },
    {
      "inputs": [],
      "name": "getAllWaves",
      "outputs": [
        {
          "components": [
            {
              "internalType": "address",
              "name": "waver",
              "type": "address"
            },
            {
              "internalType": "uint256",
              "name": "timestamp",
              "type": "uint256"
            }
          ],
          "internalType": "struct WavePortal.Wave[]",
          "name": "",
          "type": "tuple[]"
        }
      ],
      "stateMutability": "view",
      "type": "function"
    },
    {
      "inputs": [],
      "name": "getTotalWaves",
      "outputs": [
        {
          "internalType": "uint256",
          "name": "",
          "type": "uint256"
        }
      ],
      "stateMutability": "view",
      "type": "function"
    },
    {
      "inputs": [
        {
          "internalType": "address",
          "name": "",
          "type": "address"
        }
      ],
      "name": "lastWavedAt",
      "outputs": [
        {
          "internalType": "uint256",
          "name": "",
          "type": "uint256"
        }
      ],
      "stateMutability": "view",
      "type": "function"
    },
    {
      "inputs": [],
      "name": "wave",
      "outputs": [],
      "stateMutability": "nonpayable",
      "type": "function"
    }
  ],
  "bytecode": "0x60806040526200004f6040518060400160405280601981526020017f57652068617665206265656e20636f6e737472756374656421000000000000008152506200005560201b6200057e1760201c565b620001e9565b620000f5816040516024016200006c919062000162565b6040516020818303038152906040527f41304fac000000000000000000000000000000000000000000000000000000007bffffffffffffffffffffffffffffffffffffffffffffffffffffffff19166020820180517bffffffffffffffffffffffffffffffffffffffffffffffffffffffff8381831617835250505050620000f860201b60201c565b50565b60008151905060006a636f6e736f6c652e6c6f679050602083016000808483855afa5050505050565b60006200012e8262000186565b6200013a818562000191565b93506200014c818560208601620001a2565b6200015781620001d8565b840191505092915050565b600060208201905081810360008301526200017e818462000121565b905092915050565b600081519050919050565b600082825260208201905092915050565b60005b83811015620001c2578082015181840152602081019050620001a5565b83811115620001d2576000848401525b50505050565b6000601f19601f8301169050919050565b610d3c80620001f96000396000f3fe608060405234801561001057600080fd5b506004361061004c5760003560e01c80636fe15b44146100515780639a2cdc081461005b578063a42a466314610079578063bd43a908146100a9575b600080fd5b6100596100c7565b005b61006361049e565b6040516100709190610b0f565b60405180910390f35b610093600480360381019061008e919061078d565b6104a7565b6040516100a09190610b0f565b60405180910390f35b6100b16104bf565b6040516100be9190610a0b565b60405180910390f35b42600f600360003373ffffffffffffffffffffffffffffffffffffffff1673ffffffffffffffffffffffffffffffffffffffff168152602001908152602001600020546101149190610b8a565b10610154576040517f08c379a000000000000000000000000000000000000000000000000000000000815260040161014b90610aaf565b60405180910390fd5b42600360003373ffffffffffffffffffffffffffffffffffffffff1673ffffffffffffffffffffffffffffffffffffffff1681526020019081526020016000208190555060016000808282546101aa9190610b8a565b925050819055506101f06040518060400160405280600d81526020017f257320686173207761766564210000000000000000000000000000000000000081525033610617565b600260405180604001604052803373ffffffffffffffffffffffffffffffffffffffff16815260200142815250908060018154018082558091505060019003906000526020600020906002020160009091909190915060008201518160000160006101000a81548173ffffffffffffffffffffffffffffffffffffffff021916908373ffffffffffffffffffffffffffffffffffffffff1602179055506020820151816001015550506000606460015442446102ac9190610b8a565b6102b69190610b8a565b6102c09190610c4f565b90506103016040518060400160405280601681526020017f52616e646f6d20232067656e6572617465643a20257300000000000000000000815250826106b3565b80600181905550603281101561044d576103506040518060400160405280600781526020017f257320776f6e210000000000000000000000000000000000000000000000000081525033610617565b6000655af3107a400090504781111561039e576040517f08c379a000000000000000000000000000000000000000000000000000000000815260040161039590610aef565b60405180910390fd5b60003373ffffffffffffffffffffffffffffffffffffffff16826040516103c4906109f6565b60006040518083038185875af1925050503d8060008114610401576040519150601f19603f3d011682016040523d82523d6000602084013e610406565b606091505b505090508061044a576040517f08c379a000000000000000000000000000000000000000000000000000000000815260040161044190610acf565b60405180910390fd5b50505b3373ffffffffffffffffffffffffffffffffffffffff167fd4039eae27a8bdb2161befb9f8627b7c1427c2515e32d699b7dc252416e719cd426040516104939190610b0f565b60405180910390a250565b60008054905090565b60036020528060005260406000206000915090505481565b60606002805480602002602001604051908101604052809291908181526020016000905b8282101561057557838290600052602060002090600202016040518060400160405290816000820160009054906101000a900473ffffffffffffffffffffffffffffffffffffffff1673ffffffffffffffffffffffffffffffffffffffff1673ffffffffffffffffffffffffffffffffffffffff168152602001600182015481525050815260200190600101906104e3565b50505050905090565b610614816040516024016105929190610a2d565b6040516020818303038152906040527f41304fac000000000000000000000000000000000000000000000000000000007bffffffffffffffffffffffffffffffffffffffffffffffffffffffff19166020820180517bffffffffffffffffffffffffffffffffffffffffffffffffffffffff838183161783525050505061074f565b50565b6106af828260405160240161062d929190610a4f565b6040516020818303038152906040527f319af333000000000000000000000000000000000000000000000000000000007bffffffffffffffffffffffffffffffffffffffffffffffffffffffff19166020820180517bffffffffffffffffffffffffffffffffffffffffffffffffffffffff838183161783525050505061074f565b5050565b61074b82826040516024016106c9929190610a7f565b6040516020818303038152906040527f9710a9d0000000000000000000000000000000000000000000000000000000007bffffffffffffffffffffffffffffffffffffffffffffffffffffffff19166020820180517bffffffffffffffffffffffffffffffffffffffffffffffffffffffff838183161783525050505061074f565b5050565b60008151905060006a636f6e736f6c652e6c6f679050602083016000808483855afa5050505050565b60008135905061078781610cef565b92915050565b60006020828403121561079f57600080fd5b60006107ad84828501610778565b91505092915050565b60006107c283836109a9565b60408301905092915050565b6107d781610be0565b82525050565b6107e681610be0565b82525050565b60006107f782610b3a565b6108018185610b5d565b935061080c83610b2a565b8060005b8381101561083d57815161082488826107b6565b975061082f83610b50565b925050600181019050610810565b5085935050505092915050565b600061085582610b45565b61085f8185610b79565b935061086f818560208601610c1c565b61087881610cde565b840191505092915050565b6000610890600883610b79565b91507f57616974203135730000000000000000000000000000000000000000000000006000830152602082019050919050565b60006108d0602783610b79565b91507f4661696c656420746f207769746864726177206d6f6e65792066726f6d20636f60008301527f6e74726163742e000000000000000000000000000000000000000000000000006020830152604082019050919050565b6000610936603583610b79565b91507f547279696e6720746f207769746864726177206d6f7265206d6f6e657920746860008301527f616e207468657920636f6e7472616374206861732e00000000000000000000006020830152604082019050919050565b600061099c600083610b6e565b9150600082019050919050565b6040820160008201516109bf60008501826107ce565b5060208201516109d260208501826109d8565b50505050565b6109e181610c12565b82525050565b6109f081610c12565b82525050565b6000610a018261098f565b9150819050919050565b60006020820190508181036000830152610a2581846107ec565b905092915050565b60006020820190508181036000830152610a47818461084a565b905092915050565b60006040820190508181036000830152610a69818561084a565b9050610a7860208301846107dd565b9392505050565b60006040820190508181036000830152610a99818561084a565b9050610aa860208301846109e7565b9392505050565b60006020820190508181036000830152610ac881610883565b9050919050565b60006020820190508181036000830152610ae8816108c3565b9050919050565b60006020820190508181036000830152610b0881610929565b9050919050565b6000602082019050610b2460008301846109e7565b92915050565b6000819050602082019050919050565b600081519050919050565b600081519050919050565b6000602082019050919050565b600082825260208201905092915050565b600081905092915050565b600082825260208201905092915050565b6000610b9582610c12565b9150610ba083610c12565b9250827fffffffffffffffffffffffffffffffffffffffffffffffffffffffffffffffff03821115610bd557610bd4610c80565b5b828201905092915050565b6000610beb82610bf2565b9050919050565b600073ffffffffffffffffffffffffffffffffffffffff82169050919050565b6000819050919050565b60005b83811015610c3a578082015181840152602081019050610c1f565b83811115610c49576000848401525b50505050565b6000610c5a82610c12565b9150610c6583610c12565b925082610c7557610c74610caf565b5b828206905092915050565b7f4e487b7100000000000000000000000000000000000000000000000000000000600052601160045260246000fd5b7f4e487b7100000000000000000000000000000000000000000000000000000000600052601260045260246000fd5b6000601f19601f8301169050919050565b610cf881610be0565b8114610d0357600080fd5b5056fea2646970667358221220b50358ca10492cb875b7fa9baaa3fff66c7d3fd980e531dd00efdf1b8b8b932a64736f6c63430008000033",
  "linkReferences": {},
  "deployedLinkReferences": {}
}